:100000000C94BE010C94DB010C94DB010C94DB011D
:100010000C94DB010C94DB010C94DB010C94DB01F0
:100020000C94DB010C94DB010C94DB010C94DB01E0
:100030000C94DB010C94DB010C94DB010C94DB01D0
:100040000C94DB010C94DB010C94DB010C94DB01C0
:100050000C94DB010C94F8060C94DB010C94DB018E
:100060000C94DB010C94DB01808183848687898A70
:100070008C8E8F9192949597989A9B9D9EA0A2A307
:10008000A5A6A7A9AAACADAFB0B2B3B5B6B7B9BA79
:10009000BCBDBEC0C1C2C4C5C6C8C9CACBCDCECF07
:1000A000D0D2D3D4D5D6D7D9DADBDCDDDEDFE0E1C0
:1000B000E2E3E4E5E6E7E8E9EAEAEBECEDEEEEEFB1
:1000C000F0F1F1F2F3F3F4F5F5F6F6F7F8F8F9F9E3
:1000D000FAFAFAFBFBFCFCFCFDFDFDFDFEFEFEFE5C
:1000E000FEFFFFFFFFFFFFFF0000891112239B327D
:1000F0002446AD573665BF74488CC19D5AAFD3BEF8
:100100006CCAE5DB7EE9F7F88110080193331A2207
:10011000A5562C47B7753E64C99C408DDBBF52AED7
:10012000EDDA64CBFFF976E802218B3010029913E7
:100130002667AF763444BD554AADC3BC588ED19FB7
:100140006EEBE7FA7CC8F5D983310A2091121803C7
:10015000A7772E66B5543C45CBBD42ACD99E508F97
:10016000EFFB66EAFDD874C904428D5316619F7097
:100170002004A9153227BB364CCEC5DF5EEDD7FC77
:100180006888E1997AABF3BA85520C4397711E6087
:10019000A1142805B3373A26CDDE44CFDFFD56EC57
:1001A000E9986089FBBB72AA06638F7214409D5167
:1001B0002225AB343006B9174EEFC7FE5CCCD5DD37
:1001C0006AA9E3B8788AF19B87730E6295501C4147
:1001D000A3352A24B1163807CFFF46EEDDDC54CD17
:1001E000EBB962A8F99A708B088481951AA793B627
:1001F0002CC2A5D33EE1B7F04008C919522BDB3A17
:10020000644EED5F766DFF7C899400859BB712A6E6
:10021000ADD224C3BFF136E0C1184809D33B5A2AF6
:10022000E55E6C4FF77D7E6C0AA583B418869197C6
:100230002EE3A7F23CC0B5D14229CB38500AD91BD6
:10024000666FEF7E744CFD5D8BB502A499961087A6
:10025000AFF326E2BDD034C1C3394A28D11A580BB6
:10026000E77F6E6EF55C7C4D0CC685D71EE597F476
:100270002880A1913AA3B3B2444ACD5B5669DF7896
:10028000600CE91D722FFB3E8DD604C79FF516E466
:10029000A9902081BBB332A2C55A4C4BD7795E6876
:1002A000E11C680DF33F7A2E0EE787F61CC495D546
:1002B0002AA1A3B03882B193466BCF7A5448DD5956
:1002C000622DEB3C700EF91F8FF706E69DD414C526
:1002D000ABB122A0B9923083C77B4E6AD5585C4936
:1002E000E33D6A2CF11E780F4475706C696361748C
:1002F000652064657465637465642C2064726F7036
:1003000070696E67207061636B65740A0A000A0089
:100310000A4E6F74206469676970656174696E67FD
:100320000A002C252E36732D2564002C252E3673BD
:100330002D25642A000A005B252E36732D25645D69
:1003400020005B252E36732D25642A5D20000A527D
:100350005864205061746820282564293A2000449C
:1003600053545B252E36732D25645D200053524374
:100370005B252E36732D25645D20000011241FBEE1
:10038000CFEFD8E0DEBFCDBF11E0A0E0B1E0E8EDF7
:10039000F3E202C005900D92AC33B107D9F727E024
:1003A000ACE3B1E001C01D92A737B207E1F70E94AC
:1003B000B60D0C94EA110C9400000C94980D7894EE
:1003C00081E491E00E9454034DED51E061E471E05D
:1003D00085E692E00E94910748E152E061E471E015
:1003E00085E692E00E94ED0888E192E00E940F020B
:1003F000E1E7F7E088E192E0938382839183808351
:1004000008959091C00095FFFCCF8093C600089599
:100410008091C00087FFFCCF8091C6000895CF93E4
:10042000DF93CDB7DEB72E970FB6F894DEBF0FBEC1
:10043000CDBFDC018EE0FD01982F11929A95E9F76E
:100440001092C50097E69093C400E0ECF0E0908134
:100450009D7F908396E09093C20098E19093C100B5
:100460009E012F5F3F4FF90111928A95E9F783E0D2
:100470008C8381E092E09A87898788E092E09C876C
:100480008B879EE0F90101900D929A95E1F72E96E7
:100490000FB6F894DEBF0FBECDBFDF91CF910895A8
:1004A000811106C08091C000881F8827881F089589
:1004B00080E008958091C00087FF03C08091C6004E
:1004C00008958FEF08950F931F93CF93DF93182F05
:1004D000C091F303D091F403FE01E959FF4F8081ED
:1004E000811124C080E490E09E8F8D8F1C8E1B8E26
:1004F0001A8E01E00083299A2091040130910501B0
:100500004091060150910701A0EBB4E00E94E40D78
:100510006056704F8F4F9F4F20E43FE140E050E026
:100520000E94C20D3B8B2A8B00933D010FB7F894BC
:10053000209100013091010140910201509103018D
:10054000A0EBB4E00E94E40D6056704F8F4F9F4FB8
:1005500020E43FE140E050E00E94C20D3D8B2C8B37
:100560000FBFE091F303F091F4034FB7F89423A188
:1005700034A1878D90A12817390739F425A136A118
:1005800081A192A12817390779F065A176A123A14D
:1005900034A12150310991E080E06217730709F01E
:1005A00090E0292F382F02C021E030E04FBF232BED
:1005B000C1F6E091F303F091F4032FB7F894A5A1ED
:1005C000B6A11C9345A156A181A192A14817590734
:1005D00019F4878D90A103C085A196A1019696A3D9
:1005E00085A32FBFDF91CF911F910F910895E091C7
:1005F000F303F091F4034FB7F894EB58FF4F2481C5
:100600003581868197814FBF28173907E9F0E0913E
:10061000F303F091F4039FB7F894EB58FF4FA481D4
:10062000B58122813381A217B30719F4208131816A
:1006300005C0A481B5819D012F5F3F4F3583248381
:100640008C919FBF90E008958FEF9FEF08951092D7
:100650003C01089510923C011092800089E1809342
:10066000810081E896E090938700809386008091D6
:100670003C01882321F080E480937C0002C010922A
:100680007C003898409880917E00816080937E0045
:1006900087E080937B008CEE80937A008AB1886F2C
:1006A0008AB9219A229A08950F931F93CF93DF93CB
:1006B000CDB7DEB72E970FB6F894DEBF0FBECDBF15
:1006C0008C018AECD8011D928A95E9F71093F40306
:1006D0000093F30380E490E0F801968F858FC801C2
:1006E00080599F4FE859FF4F91838083978386837A
:1006F000958384830496938382830996D801AB58AB
:10070000BF4F11969C938E9317969C938E9316973A
:1007100015969C938E931497CF9613969C938E93D5
:10072000129785599109D80190969C938E935F9763
:1007300096969C938E93959794969C938E9393976D
:10074000CF9692969C938E93919784E090E0A681A9
:10075000B7811C924681578122813381421753070A
:1007600019F42081318104C0268137812F5F3F4FEA
:1007700037832683019759F70E942A038EE0FE01F2
:100780003196DF01982F1D929A95E9F793E09C83AB
:1007900023E632E03A87298727EF32E03C872B8730
:1007A000D80101900D928A95E1F72E960FB6F89434
:1007B000DEBF0FBECDBFDF91CF911F910F91089586
:1007C0000F931F93CF93DF93E091F303F091F40322
:1007D00025A136A134A323A3EC018C01060F171F1A
:1007E000C017D10721F089910E946302F9CFDF91F0
:1007F000CF911F910F910895DC0156968C915697D9
:100800008111ECC058968C9158978111A2C0939693
:100810004D915C91949795962D913C9196974217A6
:10082000530739F454962D913C915597232B09F495
:1008300060C059969C915997911103C05A961C9289
:100840005A9791E059969C93599752962D913C91C5
:1008500053972115310599F593964D915C91949795
:1008600095962D913C9196974217530759F45496BB
:100870002D913C9155972150310955963C932E93DB
:10088000549723C09396ED91FC91949791962D9156
:100890003C919297E217F30729F45F962D913C91D2
:1008A000909707C09396ED91FC9194979F012F5FCD
:1008B0003F4F94963C932E939397908107C021507D
:1008C000310953963C932E9352979EE757969C93EB
:1008D000579757969C9157979B3189F593964D91D1
:1008E0005C91949795962D913C919697421753075A
:1008F00039F410923D01A959BF4F1C9229980895CF
:100900009396ED91FC91949791968D919C919297ED
:10091000E817F90729F45F968D919C91909706C08E
:100920009396ED91FC919497CF01019694969C93A8
:100930008E939397808157968C93579706C09E57B6
:10094000923018F459961C92599781E058968C93DE
:10095000589759968C9159975D962D913C915E9739
:100960008823A9F05A968C915A97853080F05A9630
:100970001C925A972034310519F080E490E002C0AF
:1009800085E790E05E969C938E935D9723C0589682
:100990008C91589757969C915797982341F05A9667
:1009A0009C915A979F5F5A969C935A970FC05A965C
:1009B0001C925A972034310519F020E430E002C02F
:1009C00025E730E05E963C932E935D97880F58960E
:1009D0008C93589788E056968C9356975D96ED9138
:1009E000FC915E975B968D919C915C97E80FF91F47
:1009F0009F0131705C963C932E935B9756968C9139
:100A00005697815056968C93FF27E038F10530F0C9
:100A10008FEF90E0AC014E1B5F0BFA01E859FF4FDE
:100A200084912F3F310511F008F080950895EF92E1
:100A3000FF920F931F93CF93DF93FC018C0101541E
:100A40001F4FD8014D915C911197129711965C93AD
:100A50004E93A555B10914968D919C9115971296B8
:100A60002D913C9113978217930721F42D913C917E
:100A7000119707C014968D919C9115979C012F5F3B
:100A80003F4F15963C932E931497EC012881260234
:100A900090011124C9019595879595958795E80151
:100AA000998388837F01D3ECED0EF11CE701288147
:100AB00039818F010F531F4FE80139832883840F39
:100AC000951F35952795820F931FE701998388839A
:100AD000AF014B535F4F21E0181619060CF020E0D0
:100AE000EA018881880F822B888316968D919C91CC
:100AF0001797EC01688316962D913C9117971296E3
:100B00008D919C9113972817390721F48D919C9111
:100B1000119705C016968D919C911797019617967F
:100B20009C938E931697DA019C91892F86958695D2
:100B300089278370DF01AA53BF4F833039F48C912A
:100B4000803214F48F5F01C081508C938C91885F48
:100B5000803414F48C9345C18F738C93DF01A953B7
:100B6000BF4F8C91880F97702BEF290F233010F017
:100B7000933009F481608C938C91982F96958927F6
:100B8000809581709685990F892B86878E3709F01D
:100B900047C0DF01AB58BF4F14962D913C9115977C
:100BA0008D919C9111972817390761F416962D9114
:100BB0003C91179712968D919C911397281739079E
:100BC00009F4DBC016962D913C91179714968D91E0
:100BD0009C91159701972817390709F4CEC01696EE
:100BE000CD91DC9117978EE7888316962D913C91D5
:100BF000179712968D919C9113972817390721F416
:100C00008D919C91119705C016968D919C91179787
:100C1000019617969C938E93169781E0818BB0C0B6
:100C2000982F9F779F3719F4118A2A98DAC09189F3
:100C3000992309F4D6C0982F9F739E3309F4D1C02D
:100C400080FF03C080898068808B97859F5F97872E
:100C50008089983008F499C0DF01AB58BF4F92E803
:100C6000980F923018F08B3109F044C014962D91F2
:100C70003C9115978D919C9111972817390759F43C
:100C800016962D913C91179712968D919C911397E2
:100C90002817390759F116962D913C9117971496FC
:100CA0008D919C911597019728173907F9F01696A1
:100CB000CD91DC9117978BE1888316962D913C910D
:100CC000179712968D919C9113972817390721F445
:100CD0008D919C91119705C016968D919C911797B7
:100CE000019617969C938E93169704C0118A2A98A2
:100CF00080E001C081E014964D915C9115972D9193
:100D00003C9111974217530759F416964D915C91F7
:100D1000179712962D913C9113974217530769F13B
:100D200016964D915C91179714962D913C911597BD
:100D3000215031094217530701F190891696CD9140
:100D4000DC911797988316964D915C9117971296A0
:100D50002D913C9113974217530721F42D913C910B
:100D6000119706C016962D913C9117972F5F3F4F14
:100D700017963C932E93169703C0118A2A9880E009
:100D8000108A1786882321F02CC08695808B29C075
:100D9000DF01A853BF4F8D919C91119781601196EF
:100DA0009C938E93EB58FF4F2481358180819181F4
:100DB0002817390739F426813781828193812817D2
:100DC000390741F026813781848195810197281761
:100DD000390739F4868197819583848311961C9213
:100DE0001E92DF91CF911F910F91FF90EF90089588
:100DF0001F920F920FB60F9211242F933F934F9390
:100E00005F936F937F938F939F93AF93BF93EF9372
:100E1000FF9380E286BB60917800709179007695AF
:100E200067957695679560588091F3039091F403E8
:100E30000E94170580913D01882349F08091F303BA
:100E40009091F4030E94FC03807F886001C080E8D9
:100E50008BB980910B0290910C02A0910D02B09180
:100E60000E020196A11DB11D80930B0290930C02FE
:100E7000A0930D02B0930E02FF91EF91BF91AF913D
:100E80009F918F917F916F915F914F913F912F91A2
:100E90000F900FBE0F901F901895CF92DF92EF9298
:100EA000FF920F931F93CF93DF931F92CDB7DEB7BF
:100EB0007C01262F82E8860F8701065B1E4F823059
:100EC00010F06B3149F4F801608171818BE190E0A1
:100ED00029830E94CB0E2981D701A05BBE4F3C9194
:100EE00011964C911197822F90E0FC01E327EE0FB1
:100EF000FF1FE851FF4F25913491C42ED12C2C2592
:100F00003D252D933C93F801608171810F90DF9115
:100F1000CF911F910F91FF90EF90DF90CF900C94A5
:100F2000CB0E26E531E0DC01F9011D923197E9F79E
:100F3000FC01E65BFE4F71836083389651834083EA
:100F400032972FEF3FEF3183208332973183208315
:100F500008953F924F925F926F927F928F929F92ED
:100F6000AF92BF92CF92DF92EF92FF920F931F93B7
:100F7000CF93DF932C013C0126EB621A2EEF720A0D
:100F80006C014BEAC41A4EEFD40AEC01CC5ADE4F86
:100F90008C01045B1E4F7C0182EBE81A8EEFF80A8D
:100FA00033243394AA24AA94BA2C4201AEEA8A1AB2
:100FB000AEEF9A0AF301808191810E948D0E8F3FDE
:100FC000FFEF9F0709F459C0F6012081211129C0C4
:100FD0008E379105D9F4D8018D919C91429770F08C
:100FE000F70180819181883B904F41F42A9AD40186
:100FF000ED91FC91309711F0C20109953882F7010B
:10100000B182A082D8011D921C92D4CF8F37910556
:1010100011F41882CFCF8B31910519F4F60130828B
:10102000C9CF2881222331F1D8012D913C912A3456
:10103000B1E03B07F0F4A9014F5F5F4FF801518326
:101040004083F201E20FF31F8083D7012D913C9181
:10105000F901E827FF27EE0FFF1FE851FF4F8591A9
:101060009491232F332782279327F701918380833D
:1010700001C01882D6011C929DCFDF91CF911F91A4
:101080000F91FF90EF90DF90CF90BF90AF909F9027
:101090008F907F906F905F904F903F9008958F92C8
:1010A0009F92AF92BF92CF92DF92EF92FF920F93F7
:1010B0001F93CF93DF938C014B015A016C0180EB9E
:1010C000C81A8EEFD80A8FEF9FEFF60191838083C5
:1010D0007801F6EBEF1AFEEFFF0AF70160817181EC
:1010E0008EE790E00E94CB0EE401A80CB91CCA1553
:1010F000DB0529F06991C8010E944D07F8CFF60180
:101100006081C1816095C8010E944D076C2F609578
:10111000C8010E944D07F701608171818EE790E060
:10112000DF91CF911F910F91FF90EF90DF90CF90C3
:10113000BF90AF909F908F900C94CB0E8F929F9208
:10114000AF92BF92CF92DF92EF92FF92CF93DF9355
:10115000982FC62F8FB7F89440910B0250910C0234
:1011600060910D0270910E028FBFE3E4F5E020E084
:1011700030E080818823F1F0C380D480E580F68060
:101180004A015B018C189D08AE08BF088114A5E6D2
:101190009A06A4E0AA06B1046CF4D901AD5BBA4F7B
:1011A0001196DC911197D91306C01296AC91AC132D
:1011B00002C008C010823796295F3F4F203E31059C
:1011C000C1F680E0DF91CF91FF90EF90DF90CF905C
:1011D000BF90AF909F908F9008959093400580931B
:1011E0003F05509319024093180270934205609393
:1011F00041051092700710926F0708954F925F9209
:101200006F927F928F929F92AF92BF92EF92FF92D6
:101210000F931F93CF93DF93EC018B017A0181E051
:1012200080934001E0914105F0914205818981114F
:1012300038C00E944A0E90910901891730F4A70125
:10124000B801CE010E944F0846C08FB7F894809035
:101250000B0290900C02A0900D02B0900E028FBF76
:1012600020910A0130910B0140910C0150910D0128
:10127000AAE0B0E00E94E40D2FB7F89440900B0272
:1012800050900C0260900D0270900E022FBF481813
:1012900059086A087B08461657066806790664F3FB
:1012A000C1CFE0914105F09142058189882309F47D
:1012B000B9CF80913F05909140050E94A907E09128
:1012C0004105F0914205E853FF4F80819181892BC0
:1012D00041F31182108210924001DF91CF911F9152
:1012E0000F91FF90EF90BF90AF909F908F907F9065
:1012F0006F905F904F9008952F923F924F925F9220
:101300006F927F928F929F92AF92BF92CF92DF9215
:10131000EF92FF920F931F93CF93DF93CDB7DEB77A
:101320002E970FB6F894DEBF0FBECDBF809140015F
:10133000882321F01092700710926F0780916F0739
:1013400090917007892B09F4DAC3E5EFF3E020E10F
:1013500032E03B872A87D90181918695803209F452
:1013600080E08D9333E0EB3FF307B1F78091FB030F
:1013700086958F7080931602ACEFB3E02EE532E0D5
:1013800039872887F9018D918695803209F480E0AC
:10139000819332E0E436F307B1F770900204872DB1
:1013A00086958F708E878093640210920F0236E2CA
:1013B000232E32E0332E71011D861C86D12C412C48
:1013C000C12C512C42E0842E44E0942E57E0652E2F
:1013D00066E0762EAA24A394B12C84010F5F1F4FE0
:1013E000D4018C9180FD18C1B8E04B1609F414C1EA
:1013F000F80180E090E021912695203209F420E068
:10140000D701A80FB91F2C9301968630910599F743
:1014100067E0860E911CD4018C91182F16951F70D1
:10142000F7011683282F221F2227221F822F90E0E8
:101430000C8402C0880F991F0A94E2F790910F0262
:10144000892B80930F022111BDC05110BBC0C11068
:10145000B9C0809108018823B1F101900020E9F71B
:101460003197AF014E195F094730510510F046E042
:1014700050E0B70182E191E00E94780E892B19F5C6
:101480001B3009F56D9CC001112485549C4FE2E18D
:10149000F1E0DC01272D01900D922A95E1F7DC01A6
:1014A00016961C93C5010D2C01C0880F0A94EAF70B
:1014B00090911702892B80931702D39410922406DF
:1014C000109223067CC0112309F499C045E050E036
:1014D000B70189E191E00E94780E892B19F4B1E0FF
:1014E000B0933F0144E050E0B7018FE191E00E94EA
:1014F000780E20913F01892B19F0222309F47FC037
:10150000C701211102C0049601C005960E945A0E1F
:1015100006970CF074C0163008F071C010922406C3
:101520001092230611502D2D30E0629EC001639E63
:10153000900D112485549C4FE2E1F1E0DC01272D50
:1015400001900D922A95E1F7111110C02BE0FC01DA
:101550002683C5010D2C01C0880F0A94EAF79091EB
:101560001702892B80931702D39429C0EBE0DC018A
:101570001696EC93C5010D2C01C0880F0A94EAF76A
:1015800090911702892B91E09D0D699E9001112485
:1015900025543C4FF701D901472D01900D924A95F2
:1015A000E1F7D90116961C93950101C0220F9A9577
:1015B000EAF72095822380931702D394D39455247D
:1015C00053941FC06D9CC001112485549C4FF7019A
:1015D000DC01372D01900D923A95E1F7FC0116835D
:1015E000222359F020911702C5010D2C01C0880F4C
:1015F0000A94EAF7822B80931702D39402C0CC247A
:10160000C39443942C853D852F5F3F4F3D872C87A6
:1016100037E0E30EF11CE1CE1F92EE84EF928EE5EF
:1016200092E09F938F938DE693E09F938F930E9418
:10163000190F80E192E0209116021F922F939F9341
:101640008F938FE593E09F938F930E94190F1F92C2
:101650004F928EE493E09F938F930E94190F8CE238
:10166000682E82E0782E0FB6F894DEBF0FBECDBF95
:10167000E12CF12C97E3A92E93E0B92E22E4822EDF
:1016800023E0922EE41470F580910F0290E00E2C6E
:1016900002C0959587950A94E2F780FF09C0D301AF
:1016A0008C911F928F933F922F929F928F9208C09E
:1016B000F30180811F928F933F922F92BF92AF923E
:1016C0000E94190F0F900F900F900F900F900F9096
:1016D000FFEFEF1AFF0A27E0620E711C37E0230EBE
:1016E000311CD0CF85E393E09F938F930E94190F15
:1016F0000F900F90552009F464C0C11062C080E1C2
:1017000092E0209116021F922F939F938F938EE564
:1017100092E0209164021F922F939F938F9384E213
:1017200091E09F938F930E94030FE1EC4E2EE3E034
:101730005E2EFBEBEF2EF3E0FF2E0FB6F894DEBF2C
:101740000FBECDBFA12CB12CA2E28A2EA3E09A2E0F
:10175000BBE26B2EB3E07B2EAD1470F580911702C7
:1017600090E00A2C02C0959587950A94E2F780FFD5
:1017700009C0D2018C911F928F93FF92EF927F92BA
:101780006F9208C0F20180811F928F93FF92EF92B7
:101790009F928F920E94190F0F900F900F900F90B1
:1017A0000F900F90FFEFAF1ABF0A27E0420E511CB7
:1017B00037E0E30EF11CD0CF8AE390E00E943F0FA8
:1017C0000DC080E193E09F938F930E94190F0F90BB
:1017D0000F90552009F48DC1C1108BC185EF93E0A6
:1017E0004C01801A910A80916F0790917007880EC2
:1017F000991E8AE491E0E5E2F6E0DF019C011D928A
:1018000021503040E1F7A0913F05B0914005A05B29
:10181000BE4F8FEF9FEF11969C938E9320912306DE
:1018200030912406A9014B5D594F5A01EA85FB8589
:101830006191FB87EA87611101C060E2660FFA01DE
:101840006193AF01FC01E627FF27EE0FFF1FE85170
:10185000FF4FE590F490892F99278E259F256A8563
:101860007B856651724011F711969C938E93295F88
:101870003F4FC09064024C2D440F4066C42EF501CA
:101880004683A9014B5D594F5A01E885F98561915D
:10189000F987E887611101C060E2660FFA01619380
:1018A000AF01FC01E627FF27EE0FFF1FE851FF4FB6
:1018B000E590F490892F99278E259F256885798555
:1018C0006456724011F78D939C93295F3F4F30937C
:1018D000240620932306D5011696CC928BEBE82E96
:1018E00083E0F82E40E050E08D2D90E027E0722E4E
:1018F0005E01B7E0AB0EB11C6C01E1E0CE1AD1087D
:10190000481759070CF04CC0F701DE011196272D3E
:1019100001900D922A95E1F7D70116966C902091CF
:10192000170230E0042E02C0359527950A94E2F79D
:10193000217033276091230670912406FE013196B1
:10194000DB01AB5DB94F5190511003C06894552431
:1019500055F8550C5D92EA15FB05A9F7FB01369683
:10196000695F7F4F7093240660932306662D70E0B5
:10197000660F771F232B11F420E001C020E8EB5DF8
:10198000F94F31E04C155D0509F030E03066632B0E
:10199000262B20834F5F5F4FB7E0EB0EF11CB0CFDB
:1019A0008091230690912406FC01EB5DF94F23E022
:1019B00020830296909324068093230680EF8183F0
:1019C000E12CF12CE2E08E1A9108E814F9040CF0F5
:1019D0003BC0F2E0EF16F1048CF120912306309128
:1019E0002406C90101969093240680932306D8010A
:1019F0008C91F901EB5DF94F8083609173077091D1
:101A0000740790E00E94CB0EA0913F05B091400575
:101A1000A05BBE4F8D919C911197F8012081FC0134
:101A2000E227FF27EE0FFF1FE851FF4F259134916A
:101A3000892F9927822793278D939C93FFEFEF1A85
:101A4000FF0A0F5F1F4FC1CFE0913F05F0914005A6
:101A5000E05BFE4F0081118100951095612F802F72
:101A60000E949E0881113DC08EE093E09F938F936A
:101A70000E94190F409123065091240665E276E0FA
:101A800080913F05909140050E94FE08E0913E0143
:101A900027E02E9FF0011124ED5BFA4F01831283A2
:101AA0003FB7F89480910B0290910C02A0910D0227
:101AB000B0910E023FBF83839483A583B683809148
:101AC0003E0190E0289FF001299FF00D1124ED5B6D
:101AD000FA4F21E0208301968F71992780933E0170
:101AE00006C088EE92E09F938F930E94190F0F908B
:101AF0000F901092700710926F07109217022E9697
:101B00000FB6F894DEBF0FBECDBFDF91CF911F910E
:101B10000F91FF90EF90DF90CF90BF90AF909F908C
:101B20008F907F906F905F904F903F902F9008958F
:101B300020916F0730917007232BB9F4F894FC01C2
:101B4000E45BFE4F20813181FC01A5EFB3E0CD01C4
:101B5000855F93408217930718F481918D93F7CF97
:101B60003093700720936F07789408950E94DF01E7
:101B700085E692E00E94A9070E947C0980E00E940D
:101B80005002F6CFA1E21A2EAA1BBB1BFD010DC00D
:101B9000AA1FBB1FEE1FFF1FA217B307E407F5071D
:101BA00020F0A21BB30BE40BF50B661F771F881FF9
:101BB000991F1A9469F760957095809590959B018F
:101BC000AC01BD01CF0108950E94EF0DA59F900DBE
:101BD000B49F900DA49F800D911D11240895A29F84
:101BE000B001B39FC001A39F700D811D1124911DF1
:101BF000B29F700D811D1124911D08958F929F92A7
:101C0000AF92BF92CF92DF92EF92FF92CF93DF938A
:101C1000EC01688179818A819B816115710581055B
:101C2000910521F464E279ED8BE597E02DE133EF46
:101C300041E050E00E948C1149015A019B01AC0126
:101C4000A7EAB1E40E94E40D6B017C01ACEEB4EFB5
:101C5000A50194010E94AE11DC01CB018C0D9D1DEC
:101C6000AE1DBF1DB7FF03C00197A109B04888830F
:101C70009983AA83BB839F77DF91CF91FF90EF90E9
:101C8000DF90CF90BF90AF909F908F9008950E946B
:101C9000FE0D08958EE091E00E94FE0D0895A0E0F3
:101CA000B0E080930E0190930F01A0931001B093C8
:101CB00011010895FC0188279927E8942191203289
:101CC000E9F3293010F02E30C8F32B3241F02D32D9
:101CD00039F4689404C00E94850E820F911D2191F1
:101CE00020532A30C0F31EF4909581959F4F08959C
:101CF000FB01DC0104C08D910190801921F4415059
:101D00005040C8F7881B990B08957AE0979F902D53
:101D1000879F802D910D11240895CF93DF93EC01BF
:101D20002B8120FF33C026FF0AC02F7B2B838E819F
:101D30009F8101969F838E838A8190E029C022FF34
:101D40000FC0E881F9818081082E000C990B009763
:101D500019F420622B831AC03196F983E8830EC0F0
:101D6000EA85FB85099597FF09C02B81019611F043
:101D700080E201C080E1822B8B8308C02E813F81ED
:101D80002F5F3F4F3F832E83992702C08FEF9FEF36
:101D9000DF91CF9108950F931F93CF93DF93FB01B2
:101DA000238121FD03C08FEF9FEF28C022FF16C0C3
:101DB00046815781248135814217530744F4A0811D
:101DC000B1819D012F5F3F4F318320838C9326810A
:101DD00037812F5F3F4F3783268310C0EB01092FD8
:101DE000182F0084F185E02D0995892BE1F68E816D
:101DF0009F8101969F838E83812F902FDF91CF91BA
:101E00001F910F910895A0E0B0E0E9E0FFE00C948D
:101E1000C311AE014B5F5F4FFA0161917191AF0148
:101E200080917307909174070E94460FE2E00C9432
:101E3000DF11A0E0B0E0EFE1FFE00C94C111AE01D2
:101E4000495F5F4FDA016D917D91AD0101E717E0C8
:101E5000F80182819381DC0113962C9113972860FD
:101E600013962C930E94460FD8011296ED91FC9187
:101E700013972381277F2383E4E00C94DD11609185
:101E80007307709174070E94CB0E0895ACE0B0E028
:101E9000ECE4FFE00C94B3117C016B018A01FC01BE
:101EA00017821682838181FFBDC1CE0101964C014C
:101EB000F7019381F60193FD859193FF81916F0165
:101EC000882309F4ABC1853239F493FD859193FFE2
:101ED00081916F01853229F4B70190E00E94CB0E09
:101EE000E7CF512C312C20E02032A0F48B3269F066
:101EF00030F4803259F0833269F420612CC08D3285
:101F000039F0803339F4216026C02260246023C078
:101F1000286021C027FD27C030ED380F3A3078F413
:101F200026FF06C0FAE05F9E300D1124532E13C029
:101F30008AE0389E300D1124332E20620CC08E3280
:101F400021F426FD6BC1206406C08C3611F4206894
:101F500002C0883641F4F60193FD859193FF81918B
:101F60006F018111C1CF982F9F7D9554933028F434
:101F70000C5F1F4FFFE3F9830DC0833631F08337C9
:101F800071F0833509F05BC022C0F801808189833C
:101F90000E5F1F4F44244394512C540115C0380147
:101FA000F2E06F0E711CF801A080B18026FF03C023
:101FB000652D70E002C06FEF7FEFC5012C870E9496
:101FC00023112C0183012C852F77222E17C0380175
:101FD000F2E06F0E711CF801A080B18026FF03C0F3
:101FE000652D70E002C06FEF7FEFC5012C870E9466
:101FF00018112C012C852068222E830123FC1BC084
:10200000832D90E048165906B0F4B70180E290E0C5
:102010000E94CB0E3A94F4CFF50127FC859127FE60
:1020200081915F01B70190E00E94CB0E31103A948C
:10203000F1E04F1A51084114510471F7E5C084369C
:1020400011F0893639F5F80127FF07C060817181E9
:10205000828193810C5F1F4F08C060817181072EC0
:10206000000C880B990B0E5F1F4F2F76722E97FF77
:1020700009C090958095709561957F4F8F4F9F4FC8
:102080002068722E2AE030E0A4010E942E11A82EB2
:10209000A81844C0853729F42F7EB22E2AE030E0FC
:1020A00025C0F22FF97FBF2E8F36C1F018F4883586
:1020B00079F0B4C0803719F0883721F0AFC02F2FE6
:1020C0002061B22EB4FE0DC08B2D8460B82E09C0E5
:1020D00024FF0AC09F2F9660B92E06C028E030E08A
:1020E00005C020E130E002C020E132E0F801B7FE97
:1020F00007C060817181828193810C5F1F4F06C090
:102100006081718180E090E00E5F1F4FA4010E940A
:102110002E11A82EA818FB2DFF777F2E76FE0BC060
:10212000372D3E7FA51450F474FE0AC072FC08C01F
:10213000372D3E7E05C0BA2C372D03C0BA2C01C006
:10214000B52C34FF0DC0FE01EA0DF11D80818033F6
:1021500011F4397E09C032FF06C0B394B39404C0B1
:10216000832F867809F0B39433FD13C030FF06C087
:102170005A2CB31418F4530C5B18B32CB31468F432
:10218000B70180E290E03C870E94CB0EB3943C857F
:10219000F5CFB31410F43B1801C0312C34FF12C03A
:1021A000B70180E390E03C870E94CB0E3C8532FF74
:1021B00017C031FD03C088E790E002C088E590E0D9
:1021C000B7010CC0832F867859F031FF02C08BE233
:1021D00001C080E237FD8DE2B70190E00E94CB0E96
:1021E000A51438F4B70180E390E00E94CB0E5A9416
:1021F000F7CFAA94F401EA0DF11D8081B70190E0B8
:102200000E94CB0EA110F5CF332009F451CEB701B7
:1022100080E290E00E94CB0E3A94F6CFF7018681DF
:10222000978102C08FEF9FEF2C96E2E10C94CF11C3
:10223000FC010590615070400110D8F78095909591
:102240008E0F9F1F0895FC01615070400190011096
:10225000D8F7809590958E0F9F1F0895FA01AA27B1
:10226000283051F1203181F1E8946F936E7F6E5FD9
:102270007F4F8F4F9F4FAF4FB1E03ED0B4E03CD087
:10228000670F781F891F9A1FA11D680F791F8A1F6A
:10229000911DA11D6A0F711D811D911DA11D20D0D1
:1022A00009F468943F912AE0269F11243019305D8B
:1022B0003193DEF6CF010895462F4770405D41937C
:1022C000B3E00FD0C9F7F6CF462F4F70405D4A33C9
:1022D00018F0495D31FD4052419302D0A9F7EACF91
:1022E000B4E0A6959795879577956795BA95C9F7C0
:1022F00000976105710508959B01AC010A2E0694B3
:102300005795479537952795BA95C9F7620F731F6B
:10231000841F951FA01D0895052E97FB1EF40094A1
:102320000E94A31157FD07D00E94C20D07FC03D0E5
:102330004EF40C94A31150954095309521953F4F44
:102340004F4F5F4F089590958095709561957F4FA1
:102350008F4F9F4F0895B7FF0C94E40D0E94E40D3A
:10236000821B930B08952F923F924F925F926F9230
:102370007F928F929F92AF92BF92CF92DF92EF9215
:10238000FF920F931F93CF93DF93CDB7DEB7CA1B96
:10239000DB0B0FB6F894DEBF0FBECDBF09942A88C1
:1023A000398848885F846E847D848C849B84AA8469
:1023B000B984C884DF80EE80FD800C811B81AA81F6
:1023C000B981CE0FD11D0FB6F894DEBF0FBECDBFC1
:0823D000ED010895F894FFCF20
:1023D8009600000026020000017FC80000000100EE
:1023E8000000495735454A4D00545241434500576E
:1023F8004944450049474154453A2040252E367303
:0C2408002D25643E252E36732D25640022
:00000001FF
